{
  "_format": "hh-sol-artifact-1",
  "contractName": "MilestoneFunding",
  "sourceName": "contracts/MilestoneFunding.sol",
  "abi": [
    {
      "inputs": [],
      "stateMutability": "nonpayable",
      "type": "constructor"
    },
    {
      "inputs": [
        {
          "internalType": "address",
          "name": "owner",
          "type": "address"
        }
      ],
      "name": "OwnableInvalidOwner",
      "type": "error"
    },
    {
      "inputs": [
        {
          "internalType": "address",
          "name": "account",
          "type": "address"
        }
      ],
      "name": "OwnableUnauthorizedAccount",
      "type": "error"
    },
    {
      "inputs": [],
      "name": "ReentrancyGuardReentrantCall",
      "type": "error"
    },
    {
      "anonymous": false,
      "inputs": [
        {
          "indexed": true,
          "internalType": "uint256",
          "name": "projectIndex",
          "type": "uint256"
        },
        {
          "indexed": false,
          "internalType": "uint256",
          "name": "milestoneIndex",
          "type": "uint256"
        },
        {
          "indexed": false,
          "internalType": "uint256",
          "name": "amount",
          "type": "uint256"
        }
      ],
      "name": "FundsReleased",
      "type": "event"
    },
    {
      "anonymous": false,
      "inputs": [
        {
          "indexed": true,
          "internalType": "uint256",
          "name": "projectIndex",
          "type": "uint256"
        },
        {
          "indexed": false,
          "internalType": "uint256",
          "name": "milestoneIndex",
          "type": "uint256"
        },
        {
          "indexed": false,
          "internalType": "string",
          "name": "proofHash",
          "type": "string"
        }
      ],
      "name": "MilestoneCompleted",
      "type": "event"
    },
    {
      "anonymous": false,
      "inputs": [
        {
          "indexed": true,
          "internalType": "address",
          "name": "previousOwner",
          "type": "address"
        },
        {
          "indexed": true,
          "internalType": "address",
          "name": "newOwner",
          "type": "address"
        }
      ],
      "name": "OwnershipTransferred",
      "type": "event"
    },
    {
      "anonymous": false,
      "inputs": [
        {
          "indexed": true,
          "internalType": "uint256",
          "name": "projectIndex",
          "type": "uint256"
        },
        {
          "indexed": false,
          "internalType": "string",
          "name": "projectId",
          "type": "string"
        },
        {
          "indexed": false,
          "internalType": "address",
          "name": "ngoAddress",
          "type": "address"
        },
        {
          "indexed": false,
          "internalType": "uint256",
          "name": "totalRequired",
          "type": "uint256"
        }
      ],
      "name": "ProjectCreated",
      "type": "event"
    },
    {
      "anonymous": false,
      "inputs": [
        {
          "indexed": true,
          "internalType": "uint256",
          "name": "projectIndex",
          "type": "uint256"
        },
        {
          "indexed": true,
          "internalType": "address",
          "name": "funder",
          "type": "address"
        },
        {
          "indexed": false,
          "internalType": "uint256",
          "name": "amount",
          "type": "uint256"
        }
      ],
      "name": "ProjectFunded",
      "type": "event"
    },
    {
      "inputs": [
        {
          "internalType": "uint256",
          "name": "_projectIndex",
          "type": "uint256"
        },
        {
          "internalType": "uint256",
          "name": "_milestoneIndex",
          "type": "uint256"
        },
        {
          "internalType": "string",
          "name": "_proofHash",
          "type": "string"
        }
      ],
      "name": "completeMilestone",
      "outputs": [],
      "stateMutability": "nonpayable",
      "type": "function"
    },
    {
      "inputs": [
        {
          "internalType": "uint256",
          "name": "",
          "type": "uint256"
        },
        {
          "internalType": "address",
          "name": "",
          "type": "address"
        }
      ],
      "name": "contributions",
      "outputs": [
        {
          "internalType": "uint256",
          "name": "",
          "type": "uint256"
        }
      ],
      "stateMutability": "view",
      "type": "function"
    },
    {
      "inputs": [
        {
          "internalType": "string",
          "name": "_projectId",
          "type": "string"
        },
        {
          "internalType": "address",
          "name": "_ngoAddress",
          "type": "address"
        },
        {
          "internalType": "uint256",
          "name": "_totalRequired",
          "type": "uint256"
        },
        {
          "internalType": "uint256[]",
          "name": "_milestoneAmounts",
          "type": "uint256[]"
        }
      ],
      "name": "createProject",
      "outputs": [
        {
          "internalType": "uint256",
          "name": "",
          "type": "uint256"
        }
      ],
      "stateMutability": "nonpayable",
      "type": "function"
    },
    {
      "inputs": [
        {
          "internalType": "uint256",
          "name": "_projectIndex",
          "type": "uint256"
        }
      ],
      "name": "deactivateProject",
      "outputs": [],
      "stateMutability": "nonpayable",
      "type": "function"
    },
    {
      "inputs": [
        {
          "internalType": "uint256",
          "name": "_projectIndex",
          "type": "uint256"
        }
      ],
      "name": "fundProject",
      "outputs": [],
      "stateMutability": "payable",
      "type": "function"
    },
    {
      "inputs": [],
      "name": "getContractBalance",
      "outputs": [
        {
          "internalType": "uint256",
          "name": "",
          "type": "uint256"
        }
      ],
      "stateMutability": "view",
      "type": "function"
    },
    {
      "inputs": [
        {
          "internalType": "uint256",
          "name": "_projectIndex",
          "type": "uint256"
        },
        {
          "internalType": "uint256",
          "name": "_milestoneIndex",
          "type": "uint256"
        }
      ],
      "name": "getMilestone",
      "outputs": [
        {
          "internalType": "uint256",
          "name": "requiredAmount",
          "type": "uint256"
        },
        {
          "internalType": "uint256",
          "name": "fundedAmount",
          "type": "uint256"
        },
        {
          "internalType": "bool",
          "name": "completed",
          "type": "bool"
        },
        {
          "internalType": "bool",
          "name": "fundsReleased",
          "type": "bool"
        },
        {
          "internalType": "string",
          "name": "proofHash",
          "type": "string"
        }
      ],
      "stateMutability": "view",
      "type": "function"
    },
    {
      "inputs": [
        {
          "internalType": "uint256",
          "name": "_projectIndex",
          "type": "uint256"
        }
      ],
      "name": "getProject",
      "outputs": [
        {
          "internalType": "address",
          "name": "ngoAddress",
          "type": "address"
        },
        {
          "internalType": "string",
          "name": "projectId",
          "type": "string"
        },
        {
          "internalType": "uint256",
          "name": "totalRequired",
          "type": "uint256"
        },
        {
          "internalType": "uint256",
          "name": "totalFunded",
          "type": "uint256"
        },
        {
          "internalType": "uint256",
          "name": "milestoneCount",
          "type": "uint256"
        },
        {
          "internalType": "bool",
          "name": "active",
          "type": "bool"
        }
      ],
      "stateMutability": "view",
      "type": "function"
    },
    {
      "inputs": [
        {
          "internalType": "string",
          "name": "_projectId",
          "type": "string"
        }
      ],
      "name": "getProjectByMongoId",
      "outputs": [
        {
          "internalType": "uint256",
          "name": "",
          "type": "uint256"
        }
      ],
      "stateMutability": "view",
      "type": "function"
    },
    {
      "inputs": [],
      "name": "owner",
      "outputs": [
        {
          "internalType": "address",
          "name": "",
          "type": "address"
        }
      ],
      "stateMutability": "view",
      "type": "function"
    },
    {
      "inputs": [],
      "name": "projectCount",
      "outputs": [
        {
          "internalType": "uint256",
          "name": "",
          "type": "uint256"
        }
      ],
      "stateMutability": "view",
      "type": "function"
    },
    {
      "inputs": [
        {
          "internalType": "string",
          "name": "",
          "type": "string"
        }
      ],
      "name": "projectIdToIndex",
      "outputs": [
        {
          "internalType": "uint256",
          "name": "",
          "type": "uint256"
        }
      ],
      "stateMutability": "view",
      "type": "function"
    },
    {
      "inputs": [
        {
          "internalType": "uint256",
          "name": "",
          "type": "uint256"
        }
      ],
      "name": "projects",
      "outputs": [
        {
          "internalType": "address",
          "name": "ngoAddress",
          "type": "address"
        },
        {
          "internalType": "string",
          "name": "projectId",
          "type": "string"
        },
        {
          "internalType": "uint256",
          "name": "totalRequired",
          "type": "uint256"
        },
        {
          "internalType": "uint256",
          "name": "totalFunded",
          "type": "uint256"
        },
        {
          "internalType": "uint256",
          "name": "milestoneCount",
          "type": "uint256"
        },
        {
          "internalType": "bool",
          "name": "active",
          "type": "bool"
        }
      ],
      "stateMutability": "view",
      "type": "function"
    },
    {
      "inputs": [
        {
          "internalType": "uint256",
          "name": "_projectIndex",
          "type": "uint256"
        },
        {
          "internalType": "uint256",
          "name": "_milestoneIndex",
          "type": "uint256"
        }
      ],
      "name": "releaseFunds",
      "outputs": [],
      "stateMutability": "nonpayable",
      "type": "function"
    },
    {
      "inputs": [],
      "name": "renounceOwnership",
      "outputs": [],
      "stateMutability": "nonpayable",
      "type": "function"
    },
    {
      "inputs": [
        {
          "internalType": "address",
          "name": "newOwner",
          "type": "address"
        }
      ],
      "name": "transferOwnership",
      "outputs": [],
      "stateMutability": "nonpayable",
      "type": "function"
    }
  ],
  "bytecode": "0x608060405234801561001057600080fd5b506001600055338061003c57604051631e4fbdf760e01b81526000600482015260240160405180910390fd5b6100458161004b565b5061009d565b600180546001600160a01b038381166001600160a01b0319831681179093556040519116919082907f8be0079c531659141344cd1fd0a4f28419497f9722a3daafe3b4186f6b6457e090600090a35050565b611851806100ac6000396000f3fe6080604052600436106100f35760003560e01c80637fbedb751161008a5780638ed9895c116100595780638ed9895c146102ac578063df7843ae146102dd578063f0f3f2c8146102fd578063f2fde38b1461031d57600080fd5b80637fbedb751461020c578063831a83521461022c5780638652acbf1461024c5780638da5cb5b1461028457600080fd5b8063592187d3116100c6578063592187d3146101b15780636c563abe146101d15780636f9fb98a146101e4578063715018a6146101f757600080fd5b8063107046bd146100f857806336fbad26146101335780633d891f5914610157578063436e69581461018f575b600080fd5b34801561010457600080fd5b5061011861011336600461120a565b61033d565b60405161012a96959493929190611273565b60405180910390f35b34801561013f57600080fd5b5061014960025481565b60405190815260200161012a565b34801561016357600080fd5b506101496101723660046112da565b600560209081526000928352604080842090915290825290205481565b34801561019b57600080fd5b506101af6101aa36600461120a565b610408565b005b3480156101bd57600080fd5b506101496101cc3660046113bd565b610462565b6101af6101df36600461120a565b61048a565b3480156101f057600080fd5b5047610149565b34801561020357600080fd5b506101af6106e5565b34801561021857600080fd5b506101af6102273660046113fa565b6106f9565b34801561023857600080fd5b5061014961024736600461144a565b610917565b34801561025857600080fd5b506101496102673660046113bd565b805160208183018101805160048252928201919093012091525481565b34801561029057600080fd5b506001546040516001600160a01b03909116815260200161012a565b3480156102b857600080fd5b506102cc6102c736600461152c565b610c73565b60405161012a95949392919061154e565b3480156102e957600080fd5b506101af6102f836600461152c565b610dab565b34801561030957600080fd5b5061011861031836600461120a565b61100a565b34801561032957600080fd5b506101af610338366004611588565b611126565b600360205260009081526040902080546001820180546001600160a01b039092169291610369906115aa565b80601f0160208091040260200160405190810160405280929190818152602001828054610395906115aa565b80156103e25780601f106103b7576101008083540402835291602001916103e2565b820191906000526020600020905b8154815290600101906020018083116103c557829003601f168201915b505050506002830154600384015460048501546005909501549394919390925060ff1686565b610410611161565b60008111801561042257506002548111155b6104475760405162461bcd60e51b815260040161043e906115e4565b60405180910390fd5b6000908152600360205260409020600501805460ff19169055565b6000600482604051610474919061160d565b9081526020016040518091039020549050919050565b61049261118e565b6000811180156104a457506002548111155b6104c05760405162461bcd60e51b815260040161043e906115e4565b6000818152600360205260409020600581015460ff166105175760405162461bcd60e51b815260206004820152601260248201527150726f6a656374206e6f742061637469766560701b604482015260640161043e565b600034116105575760405162461bcd60e51b815260206004820152600d60248201526c09aeae6e840e6cadcc8408aa89609b1b604482015260640161043e565b806002015434826003015461056c919061163f565b11156105ba5760405162461bcd60e51b815260206004820152601760248201527f4578636565647320726571756972656420616d6f756e74000000000000000000604482015260640161043e565b348160030160008282546105ce919061163f565b90915550506000828152600560209081526040808320338452909152812080543492906105fc90849061163f565b9091555034905060005b8260040154811080156106195750600082115b1561069e5760008181526006840160205260409020600281015460ff1661068b576001810154815460009161064d91611658565b9050600081851161065e5784610660565b815b905080836001016000828254610676919061163f565b9091555061068690508186611658565b945050505b50806106968161166b565b915050610606565b50604051348152339084907f6251418ffd7f504740544ec3d578897633e212c5d658b7dce793c5dc9d2e855e9060200160405180910390a350506106e26001600055565b50565b6106ed611161565b6106f760006111b8565b565b60008311801561070b57506002548311155b6107275760405162461bcd60e51b815260040161043e906115e4565b600083815260036020526040902080546001600160a01b031633148061075757506001546001600160a01b031633145b6107945760405162461bcd60e51b815260206004820152600e60248201526d139bdd08185d5d1a1bdc9a5e995960921b604482015260640161043e565b806004015483106107b75760405162461bcd60e51b815260040161043e90611684565b60008381526006820160205260409020600281015460ff161561081c5760405162461bcd60e51b815260206004820152601b60248201527f4d696c6573746f6e6520616c726561647920636f6d706c657465640000000000604482015260640161043e565b8054600182015410156108715760405162461bcd60e51b815260206004820152601a60248201527f4d696c6573746f6e65206e6f742066756c6c792066756e646564000000000000604482015260640161043e565b60008351116108b85760405162461bcd60e51b8152602060048201526013602482015272141c9bdbd9881a185cda081c995c5d5a5c9959606a1b604482015260640161043e565b60028101805460ff19166001179055600381016108d584826116fe565b50847fa2efa9e8a9cb69da31069e845d86ddc3da31da23669a47f5ec5f60247d31a16b85856040516109089291906117be565b60405180910390a25050505050565b60006001600160a01b0384166109655760405162461bcd60e51b8152602060048201526013602482015272496e76616c6964204e474f206164647265737360681b604482015260640161043e565b60008251116109b65760405162461bcd60e51b815260206004820152601f60248201527f4174206c65617374206f6e65206d696c6573746f6e6520726571756972656400604482015260640161043e565b6004856040516109c6919061160d565b908152602001604051809103902054600014610a1d5760405162461bcd60e51b815260206004820152601660248201527550726f6a65637420616c72656164792065786973747360501b604482015260640161043e565b6000805b8351811015610a6357838181518110610a3c57610a3c6117d7565b602002602001015182610a4f919061163f565b915080610a5b8161166b565b915050610a21565b50838114610ac75760405162461bcd60e51b815260206004820152602b60248201527f4d696c6573746f6e6520616d6f756e7473206d75737420657175616c20746f7460448201526a185b081c995c5d5a5c995960aa1b606482015260840161043e565b60028054906000610ad78361166b565b9091555050600254600081815260036020526040902080546001600160a01b0319166001600160a01b03881617815560018101610b1489826116fe565b50600281018690556000600382018190558551600483015560058201805460ff191660011790555b8551811015610c08576040518060a00160405280878381518110610b6257610b626117d7565b60209081029190910181015182526000828201819052604080840182905260608085018390528151808501835283815260809586015286835260068801845291819020855181559285015160018401558401516002830180549286015115156101000261ff00199215159290921661ffff1990931692909217179055908201516003820190610bf190826116fe565b509050508080610c009061166b565b915050610b3c565b5081600489604051610c1a919061160d565b908152602001604051809103902081905550817fa026ee65bff24e0219543a4cec2746ef952b145e2658ac5db36953d7044712a9898989604051610c60939291906117ed565b60405180910390a2509695505050505050565b6000806000806060600087118015610c8d57506002548711155b610ca95760405162461bcd60e51b815260040161043e906115e4565b600087815260036020526040902060048101548710610cda5760405162461bcd60e51b815260040161043e90611684565b6000878152600682016020526040902080546001820154600283015460038401805460ff8084169361010090041691908190610d15906115aa565b80601f0160208091040260200160405190810160405280929190818152602001828054610d41906115aa565b8015610d8e5780601f10610d6357610100808354040283529160200191610d8e565b820191906000526020600020905b815481529060010190602001808311610d7157829003601f168201915b505050505090509650965096509650965050509295509295909350565b610db361118e565b600082118015610dc557506002548211155b610de15760405162461bcd60e51b815260040161043e906115e4565b600082815260036020526040902060048101548210610e125760405162461bcd60e51b815260040161043e90611684565b60008281526006820160205260409020600281015460ff16610e765760405162461bcd60e51b815260206004820152601760248201527f4d696c6573746f6e65206e6f7420636f6d706c65746564000000000000000000604482015260640161043e565b6002810154610100900460ff1615610ec95760405162461bcd60e51b8152602060048201526016602482015275119d5b991cc8185b1c9958591e481c995b19585cd95960521b604482015260640161043e565b6000816001015411610f135760405162461bcd60e51b81526020600482015260136024820152724e6f2066756e647320746f2072656c6561736560681b604482015260640161043e565b60028101805461ff001916610100179055600181015482546040516000916001600160a01b03169083908381818185875af1925050503d8060008114610f75576040519150601f19603f3d011682016040523d82523d6000602084013e610f7a565b606091505b5050905080610fbd5760405162461bcd60e51b815260206004820152600f60248201526e151c985b9cd9995c8819985a5b1959608a1b604482015260640161043e565b604080518681526020810184905287917f24d2f6e8ac6c13d1e7610752ab0b7ce03d5043806a65d3d631ae859ad81d159b910160405180910390a2505050506110066001600055565b5050565b6000606060008060008060008711801561102657506002548711155b6110425760405162461bcd60e51b815260040161043e906115e4565b600087815260036020819052604090912080546002820154928201546004830154600584015460018501805495966001600160a01b0390951695909493929160ff16908590611090906115aa565b80601f01602080910402602001604051908101604052809291908181526020018280546110bc906115aa565b80156111095780601f106110de57610100808354040283529160200191611109565b820191906000526020600020905b8154815290600101906020018083116110ec57829003601f168201915b505050505094509650965096509650965096505091939550919395565b61112e611161565b6001600160a01b03811661115857604051631e4fbdf760e01b81526000600482015260240161043e565b6106e2816111b8565b6001546001600160a01b031633146106f75760405163118cdaa760e01b815233600482015260240161043e565b6002600054036111b157604051633ee5aeb560e01b815260040160405180910390fd5b6002600055565b600180546001600160a01b038381166001600160a01b0319831681179093556040519116919082907f8be0079c531659141344cd1fd0a4f28419497f9722a3daafe3b4186f6b6457e090600090a35050565b60006020828403121561121c57600080fd5b5035919050565b60005b8381101561123e578181015183820152602001611226565b50506000910152565b6000815180845261125f816020860160208601611223565b601f01601f19169290920160200192915050565b6001600160a01b038716815260c06020820181905260009061129790830188611247565b905085604083015284606083015283608083015282151560a0830152979650505050505050565b80356001600160a01b03811681146112d557600080fd5b919050565b600080604083850312156112ed57600080fd5b823591506112fd602084016112be565b90509250929050565b634e487b7160e01b600052604160045260246000fd5b604051601f8201601f1916810167ffffffffffffffff8111828210171561134557611345611306565b604052919050565b600082601f83011261135e57600080fd5b813567ffffffffffffffff81111561137857611378611306565b61138b601f8201601f191660200161131c565b8181528460208386010111156113a057600080fd5b816020850160208301376000918101602001919091529392505050565b6000602082840312156113cf57600080fd5b813567ffffffffffffffff8111156113e657600080fd5b6113f28482850161134d565b949350505050565b60008060006060848603121561140f57600080fd5b8335925060208401359150604084013567ffffffffffffffff81111561143457600080fd5b6114408682870161134d565b9150509250925092565b6000806000806080858703121561146057600080fd5b843567ffffffffffffffff8082111561147857600080fd5b6114848883890161134d565b9550602091506114958288016112be565b9450604087013593506060870135818111156114b057600080fd5b8701601f810189136114c157600080fd5b8035828111156114d3576114d3611306565b8060051b92506114e484840161131c565b818152928201840192848101908b8511156114fe57600080fd5b928501925b8484101561151c57833582529285019290850190611503565b989b979a50959850505050505050565b6000806040838503121561153f57600080fd5b50508035926020909101359150565b8581528460208201528315156040820152821515606082015260a06080820152600061157d60a0830184611247565b979650505050505050565b60006020828403121561159a57600080fd5b6115a3826112be565b9392505050565b600181811c908216806115be57607f821691505b6020821081036115de57634e487b7160e01b600052602260045260246000fd5b50919050565b6020808252600f908201526e125b9d985b1a59081c1c9bda9958dd608a1b604082015260600190565b6000825161161f818460208701611223565b9190910192915050565b634e487b7160e01b600052601160045260246000fd5b8082018082111561165257611652611629565b92915050565b8181038181111561165257611652611629565b60006001820161167d5761167d611629565b5060010190565b602080825260119082015270496e76616c6964206d696c6573746f6e6560781b604082015260600190565b601f8211156116f957600081815260208120601f850160051c810160208610156116d65750805b601f850160051c820191505b818110156116f5578281556001016116e2565b5050505b505050565b815167ffffffffffffffff81111561171857611718611306565b61172c8161172684546115aa565b846116af565b602080601f83116001811461176157600084156117495750858301515b600019600386901b1c1916600185901b1785556116f5565b600085815260208120601f198616915b8281101561179057888601518255948401946001909101908401611771565b50858210156117ae5787850151600019600388901b60f8161c191681555b5050505050600190811b01905550565b8281526040602082015260006113f26040830184611247565b634e487b7160e01b600052603260045260246000fd5b6060815260006118006060830186611247565b6001600160a01b03949094166020830152506040015291905056fea264697066735822122072814cc949a803de1a6639d1b5e699388ce735428ee70f2faa73d56aceaf5a8c64736f6c63430008140033",
  "linkReferences": {},
  "deployedLinkReferences": {}
}